{
    "_format": "hh-sol-artifact-1",
    "contractName": "Floan",
    "sourceName": "contracts/Floan.sol",
    "abi": [
        {
            "inputs": [
                {
                    "internalType": "address",
                    "name": "_tokenAddress",
                    "type": "address"
                }
            ],
            "stateMutability": "nonpayable",
            "type": "constructor"
        },
        {
            "anonymous": false,
            "inputs": [
                {
                    "indexed": true,
                    "internalType": "address",
                    "name": "requestor",
                    "type": "address"
                },
                {
                    "indexed": true,
                    "internalType": "uint256",
                    "name": "loanID",
                    "type": "uint256"
                }
            ],
            "name": "LogDrawLoan",
            "type": "event"
        },
        {
            "anonymous": false,
            "inputs": [
                {
                    "indexed": true,
                    "internalType": "address",
                    "name": "requestor",
                    "type": "address"
                },
                {
                    "indexed": true,
                    "internalType": "uint256",
                    "name": "loanID",
                    "type": "uint256"
                }
            ],
            "name": "LogPaybackLoan",
            "type": "event"
        },
        {
            "anonymous": false,
            "inputs": [
                {
                    "indexed": true,
                    "internalType": "address",
                    "name": "matcher",
                    "type": "address"
                },
                {
                    "indexed": true,
                    "internalType": "uint256",
                    "name": "loanID",
                    "type": "uint256"
                },
                {
                    "indexed": false,
                    "internalType": "uint256",
                    "name": "principal",
                    "type": "uint256"
                },
                {
                    "indexed": false,
                    "internalType": "uint256",
                    "name": "repayment",
                    "type": "uint256"
                },
                {
                    "indexed": false,
                    "internalType": "uint256",
                    "name": "duration",
                    "type": "uint256"
                },
                {
                    "indexed": false,
                    "internalType": "uint256",
                    "name": "validUntil",
                    "type": "uint256"
                }
            ],
            "name": "LogProvideLoan",
            "type": "event"
        },
        {
            "anonymous": false,
            "inputs": [
                {
                    "indexed": true,
                    "internalType": "address",
                    "name": "requester",
                    "type": "address"
                },
                {
                    "indexed": true,
                    "internalType": "uint256",
                    "name": "loanID",
                    "type": "uint256"
                },
                {
                    "indexed": false,
                    "internalType": "uint256",
                    "name": "principal",
                    "type": "uint256"
                },
                {
                    "indexed": false,
                    "internalType": "uint256",
                    "name": "repayment",
                    "type": "uint256"
                },
                {
                    "indexed": false,
                    "internalType": "uint256",
                    "name": "duration",
                    "type": "uint256"
                },
                {
                    "indexed": false,
                    "internalType": "uint256",
                    "name": "validUntil",
                    "type": "uint256"
                }
            ],
            "name": "LogRequestLoan",
            "type": "event"
        },
        {
            "anonymous": false,
            "inputs": [
                {
                    "indexed": true,
                    "internalType": "uint256",
                    "name": "loanID",
                    "type": "uint256"
                }
            ],
            "name": "LogSlashDebtor",
            "type": "event"
        },
        {
            "inputs": [],
            "name": "drawLoan",
            "outputs": [],
            "stateMutability": "nonpayable",
            "type": "function"
        },
        {
            "inputs": [],
            "name": "getTokenAddress",
            "outputs": [
                {
                    "internalType": "address",
                    "name": "",
                    "type": "address"
                }
            ],
            "stateMutability": "view",
            "type": "function"
        },
        {
            "inputs": [
                {
                    "internalType": "uint256",
                    "name": "loanID",
                    "type": "uint256"
                }
            ],
            "name": "paybackLoan",
            "outputs": [],
            "stateMutability": "nonpayable",
            "type": "function"
        },
        {
            "inputs": [
                {
                    "internalType": "uint256",
                    "name": "loanID",
                    "type": "uint256"
                }
            ],
            "name": "provideLoan",
            "outputs": [],
            "stateMutability": "nonpayable",
            "type": "function"
        },
        {
            "inputs": [
                {
                    "internalType": "uint256",
                    "name": "_principal",
                    "type": "uint256"
                },
                {
                    "internalType": "uint256",
                    "name": "_repayment",
                    "type": "uint256"
                },
                {
                    "internalType": "uint256",
                    "name": "_duration",
                    "type": "uint256"
                },
                {
                    "internalType": "uint256",
                    "name": "_validUntil",
                    "type": "uint256"
                }
            ],
            "name": "requestLoan",
            "outputs": [],
            "stateMutability": "nonpayable",
            "type": "function"
        },
        {
            "inputs": [
                {
                    "internalType": "uint256",
                    "name": "loanID",
                    "type": "uint256"
                }
            ],
            "name": "slashDebtor",
            "outputs": [],
            "stateMutability": "nonpayable",
            "type": "function"
        },
        {
            "inputs": [
                {
                    "internalType": "uint256",
                    "name": "loanID",
                    "type": "uint256"
                }
            ],
            "name": "takePayback",
            "outputs": [],
            "stateMutability": "nonpayable",
            "type": "function"
        }
    ],
    "bytecode": "0x60806040523480156200001157600080fd5b506040516200186e3803806200186e833981810160405281019062000037919062000095565b806000806101000a81548173ffffffffffffffffffffffffffffffffffffffff021916908373ffffffffffffffffffffffffffffffffffffffff160217905550506200010f565b6000815190506200008f81620000f5565b92915050565b600060208284031215620000a857600080fd5b6000620000b8848285016200007e565b91505092915050565b6000620000ce82620000d5565b9050919050565b600073ffffffffffffffffffffffffffffffffffffffff82169050919050565b6200010081620000c1565b81146200010c57600080fd5b50565b61174f806200011f6000396000f3fe608060405234801561001057600080fd5b506004361061007d5760003560e01c8063ad72a9d61161005b578063ad72a9d6146100d8578063d16ef22a146100e2578063d1da1624146100fe578063f29852ae1461011a5761007d565b806310fe9ae8146100825780631800dd70146100a0578063753c7ff9146100bc575b600080fd5b61008a610136565b60405161009791906111e9565b60405180910390f35b6100ba60048036038101906100b59190610f83565b61015f565b005b6100d660048036038101906100d19190610fac565b610293565b005b6100e06104fd565b005b6100fc60048036038101906100f79190610f83565b61077d565b005b61011860048036038101906101139190610f83565b610835565b005b610134600480360381019061012f9190610f83565b61099a565b005b60008060009054906101000a900473ffffffffffffffffffffffffffffffffffffffff16905090565b60006003600083815260200190815260200160002060050160026101000a81548160ff02191690831515021790556101cc576040517f08c379a00000000000000000000000000000000000000000000000000000000081526004016101c390611306565b60405180910390fd5b4360036000838152602001908152602001600020600401541115610225576040517f08c379a000000000000000000000000000000000000000000000000000000000815260040161021c90611286565b60405180910390fd5b6102636040518060400160405280601181526020017f596f752061726520612062616420626f79000000000000000000000000000000815250610af2565b807f0e4a8618769b7d1382550dcb6900026bc57b02ec46b01d94e4df6f78ad4d423260405160405180910390a250565b438110156102d6576040517f08c379a00000000000000000000000000000000000000000000000000000000081526004016102cd906112c6565b60405180910390fd5b6040518061012001604052803373ffffffffffffffffffffffffffffffffffffffff1681526020018581526020018481526020018381526020018281526020016000151581526020016000151581526020016000151581526020016000151581525060036000600454815260200190815260200160002060008201518160000160006101000a81548173ffffffffffffffffffffffffffffffffffffffff021916908373ffffffffffffffffffffffffffffffffffffffff1602179055506020820151816001015560408201518160020155606082015181600301556080820151816004015560a08201518160050160006101000a81548160ff02191690831515021790555060c08201518160050160016101000a81548160ff02191690831515021790555060e08201518160050160026101000a81548160ff0219169083151502179055506101008201518160050160036101000a81548160ff021916908315150217905550905050600454600160003373ffffffffffffffffffffffffffffffffffffffff1673ffffffffffffffffffffffffffffffffffffffff168152602001908152602001600020819055506004543373ffffffffffffffffffffffffffffffffffffffff167f82980db29d0f482463ff18bdc101a6bb0e903fcded908e729e64da9f2cf44bba868686866040516104d594939291906113a6565b60405180910390a36001600460008282546104f0919061141d565b9250508190555050505050565b6000600160003373ffffffffffffffffffffffffffffffffffffffff1673ffffffffffffffffffffffffffffffffffffffff168152602001908152602001600020549050600060036000838152602001908152602001600020604051806101200160405290816000820160009054906101000a900473ffffffffffffffffffffffffffffffffffffffff1673ffffffffffffffffffffffffffffffffffffffff1673ffffffffffffffffffffffffffffffffffffffff168152602001600182015481526020016002820154815260200160038201548152602001600482015481526020016005820160009054906101000a900460ff161515151581526020016005820160019054906101000a900460ff161515151581526020016005820160029054906101000a900460ff161515151581526020016005820160039054906101000a900460ff16151515158152505090508060a00151610692576040517f08c379a000000000000000000000000000000000000000000000000000000000815260040161068990611326565b60405180910390fd5b8060c00151156106d7576040517f08c379a00000000000000000000000000000000000000000000000000000000081526004016106ce906112a6565b60405180910390fd5b61070660008054906101000a900473ffffffffffffffffffffffffffffffffffffffff16338360200151610b8b565b60016003600084815260200190815260200160002060050160016101000a81548160ff021916908315150217905550813373ffffffffffffffffffffffffffffffffffffffff167f3519abf971fce92bdd46abe4a7c137e5d0628cfe49441740889914cdc5fd496560405160405180910390a35050565b6107bf60008054906101000a900473ffffffffffffffffffffffffffffffffffffffff1633306003600086815260200190815260200160002060020154610c11565b60016003600083815260200190815260200160002060050160026101000a81548160ff021916908315150217905550803373ffffffffffffffffffffffffffffffffffffffff167f5de9f94bf7e159942b45d6195f36dbeb317ed1217d185bf0f6d272d44b91b66860405160405180910390a350565b61087760008054906101000a900473ffffffffffffffffffffffffffffffffffffffff1633306003600086815260200190815260200160002060010154610c11565b60016003600083815260200190815260200160002060050160006101000a81548160ff02191690831515021790555080600260003373ffffffffffffffffffffffffffffffffffffffff1673ffffffffffffffffffffffffffffffffffffffff16815260200190815260200160002081905550803373ffffffffffffffffffffffffffffffffffffffff167fa455594691e785e679f1a5c249478ed0a50a336fcf5a466c8cfecec685d72cf0600360008581526020019081526020016000206001015460036000868152602001908152602001600020600201546003600087815260200190815260200160002060030154600360008881526020019081526020016000206004015460405161098f94939291906113a6565b60405180910390a350565b80600260003373ffffffffffffffffffffffffffffffffffffffff1673ffffffffffffffffffffffffffffffffffffffff1681526020019081526020016000205414610a1b576040517f08c379a0000000000000000000000000000000000000000000000000000000008152600401610a1290611386565b60405180910390fd5b6003600082815260200190815260200160002060050160029054906101000a900460ff16610a7e576040517f08c379a0000000000000000000000000000000000000000000000000000000008152600401610a7590611386565b60405180910390fd5b610ac060008054906101000a900473ffffffffffffffffffffffffffffffffffffffff1633306003600086815260200190815260200160002060020154610c11565b60016003600083815260200190815260200160002060050160036101000a81548160ff02191690831515021790555050565b610b8881604051602401610b069190611264565b6040516020818303038152906040527f41304fac000000000000000000000000000000000000000000000000000000007bffffffffffffffffffffffffffffffffffffffffffffffffffffffff19166020820180517bffffffffffffffffffffffffffffffffffffffffffffffffffffffff8381831617835250505050610c9a565b50565b610c0c8363a9059cbb60e01b8484604051602401610baa92919061123b565b604051602081830303815290604052907bffffffffffffffffffffffffffffffffffffffffffffffffffffffff19166020820180517bffffffffffffffffffffffffffffffffffffffffffffffffffffffff8381831617835250505050610cc3565b505050565b610c94846323b872dd60e01b858585604051602401610c3293929190611204565b604051602081830303815290604052907bffffffffffffffffffffffffffffffffffffffffffffffffffffffff19166020820180517bffffffffffffffffffffffffffffffffffffffffffffffffffffffff8381831617835250505050610cc3565b50505050565b60008151905060006a636f6e736f6c652e6c6f679050602083016000808483855afa5050505050565b6000610d25826040518060400160405280602081526020017f5361666545524332303a206c6f772d6c6576656c2063616c6c206661696c65648152508573ffffffffffffffffffffffffffffffffffffffff16610d8a9092919063ffffffff16565b9050600081511115610d855780806020019051810190610d459190610f5a565b610d84576040517f08c379a0000000000000000000000000000000000000000000000000000000008152600401610d7b90611366565b60405180910390fd5b5b505050565b6060610d998484600085610da2565b90509392505050565b606082471015610de7576040517f08c379a0000000000000000000000000000000000000000000000000000000008152600401610dde906112e6565b60405180910390fd5b610df085610eb6565b610e2f576040517f08c379a0000000000000000000000000000000000000000000000000000000008152600401610e2690611346565b60405180910390fd5b6000808673ffffffffffffffffffffffffffffffffffffffff168587604051610e5891906111d2565b60006040518083038185875af1925050503d8060008114610e95576040519150601f19603f3d011682016040523d82523d6000602084013e610e9a565b606091505b5091509150610eaa828286610ec9565b92505050949350505050565b600080823b905060008111915050919050565b60608315610ed957829050610f29565b600083511115610eec5782518084602001fd5b816040517f08c379a0000000000000000000000000000000000000000000000000000000008152600401610f209190611264565b60405180910390fd5b9392505050565b600081519050610f3f816116eb565b92915050565b600081359050610f5481611702565b92915050565b600060208284031215610f6c57600080fd5b6000610f7a84828501610f30565b91505092915050565b600060208284031215610f9557600080fd5b6000610fa384828501610f45565b91505092915050565b60008060008060808587031215610fc257600080fd5b6000610fd087828801610f45565b9450506020610fe187828801610f45565b9350506040610ff287828801610f45565b925050606061100387828801610f45565b91505092959194509250565b61101881611473565b82525050565b6000611029826113eb565b6110338185611401565b93506110438185602086016114bb565b80840191505092915050565b600061105a826113f6565b611064818561140c565b93506110748185602086016114bb565b61107d8161151d565b840191505092915050565b600061109560128361140c565b91506110a08261152e565b602082019050919050565b60006110b860188361140c565b91506110c382611557565b602082019050919050565b60006110db60118361140c565b91506110e682611580565b602082019050919050565b60006110fe60268361140c565b9150611109826115a9565b604082019050919050565b6000611121600d8361140c565b915061112c826115f8565b602082019050919050565b600061114460128361140c565b915061114f82611621565b602082019050919050565b6000611167601d8361140c565b91506111728261164a565b602082019050919050565b600061118a602a8361140c565b915061119582611673565b604082019050919050565b60006111ad60138361140c565b91506111b8826116c2565b602082019050919050565b6111cc816114b1565b82525050565b60006111de828461101e565b915081905092915050565b60006020820190506111fe600083018461100f565b92915050565b6000606082019050611219600083018661100f565b611226602083018561100f565b61123360408301846111c3565b949350505050565b6000604082019050611250600083018561100f565b61125d60208301846111c3565b9392505050565b6000602082019050818103600083015261127e818461104f565b905092915050565b6000602082019050818103600083015261129f81611088565b9050919050565b600060208201905081810360008301526112bf816110ab565b9050919050565b600060208201905081810360008301526112df816110ce565b9050919050565b600060208201905081810360008301526112ff816110f1565b9050919050565b6000602082019050818103600083015261131f81611114565b9050919050565b6000602082019050818103600083015261133f81611137565b9050919050565b6000602082019050818103600083015261135f8161115a565b9050919050565b6000602082019050818103600083015261137f8161117d565b9050919050565b6000602082019050818103600083015261139f816111a0565b9050919050565b60006080820190506113bb60008301876111c3565b6113c860208301866111c3565b6113d560408301856111c3565b6113e260608301846111c3565b95945050505050565b600081519050919050565b600081519050919050565b600081905092915050565b600082825260208201905092915050565b6000611428826114b1565b9150611433836114b1565b9250827fffffffffffffffffffffffffffffffffffffffffffffffffffffffffffffffff03821115611468576114676114ee565b5b828201905092915050565b600061147e82611491565b9050919050565b60008115159050919050565b600073ffffffffffffffffffffffffffffffffffffffff82169050919050565b6000819050919050565b60005b838110156114d95780820151818401526020810190506114be565b838111156114e8576000848401525b50505050565b7f4e487b7100000000000000000000000000000000000000000000000000000000600052601160045260246000fd5b6000601f19601f8301169050919050565b7f506572696f64206973206e6f74206f7665720000000000000000000000000000600082015250565b7f4d6f6e657920686173206265656e2077697468647261776e0000000000000000600082015250565b7f4261636b20696e2074696d652063616c6c000000000000000000000000000000600082015250565b7f416464726573733a20696e73756666696369656e742062616c616e636520666f60008201527f722063616c6c0000000000000000000000000000000000000000000000000000602082015250565b7f4973207061796564206261636b00000000000000000000000000000000000000600082015250565b7f52657175657374206e6f742066696c6c65640000000000000000000000000000600082015250565b7f416464726573733a2063616c6c20746f206e6f6e2d636f6e7472616374000000600082015250565b7f5361666545524332303a204552433230206f7065726174696f6e20646964206e60008201527f6f74207375636365656400000000000000000000000000000000000000000000602082015250565b7f4e6f74206f726967696e616c206c656e64657200000000000000000000000000600082015250565b6116f481611485565b81146116ff57600080fd5b50565b61170b816114b1565b811461171657600080fd5b5056fea2646970667358221220d20aed186fddb5560e4fdedd2aac89dba3796afc132243f7587ea1d03eded8f764736f6c63430008040033",
    "linkReferences": {},
    "deployedLinkReferences": {}
}