{
    "_format": "hh-sol-artifact-1",
    "contractName": "Floan",
    "sourceName": "contracts/Floan.sol",
    "abi": [
        {
            "inputs": [
                {
                    "internalType": "address",
                    "name": "_tokenAddress",
                    "type": "address"
                }
            ],
            "stateMutability": "nonpayable",
            "type": "constructor"
        },
        {
            "anonymous": false,
            "inputs": [
                {
                    "indexed": true,
                    "internalType": "address",
                    "name": "requestor",
                    "type": "address"
                },
                {
                    "indexed": true,
                    "internalType": "uint256",
                    "name": "loanID",
                    "type": "uint256"
                }
            ],
            "name": "LogDrawLoan",
            "type": "event"
        },
        {
            "anonymous": false,
            "inputs": [
                {
                    "indexed": true,
                    "internalType": "address",
                    "name": "requestor",
                    "type": "address"
                },
                {
                    "indexed": true,
                    "internalType": "uint256",
                    "name": "loanID",
                    "type": "uint256"
                }
            ],
            "name": "LogPaybackLoan",
            "type": "event"
        },
        {
            "anonymous": false,
            "inputs": [
                {
                    "indexed": true,
                    "internalType": "address",
                    "name": "matcher",
                    "type": "address"
                },
                {
                    "indexed": true,
                    "internalType": "uint256",
                    "name": "loanID",
                    "type": "uint256"
                }
            ],
            "name": "LogProvideLoan",
            "type": "event"
        },
        {
            "anonymous": false,
            "inputs": [
                {
                    "indexed": true,
                    "internalType": "address",
                    "name": "requester",
                    "type": "address"
                },
                {
                    "indexed": true,
                    "internalType": "uint256",
                    "name": "loanID",
                    "type": "uint256"
                },
                {
                    "indexed": false,
                    "internalType": "uint256",
                    "name": "principal",
                    "type": "uint256"
                },
                {
                    "indexed": false,
                    "internalType": "uint256",
                    "name": "repayment",
                    "type": "uint256"
                },
                {
                    "indexed": false,
                    "internalType": "uint256",
                    "name": "duration",
                    "type": "uint256"
                },
                {
                    "indexed": false,
                    "internalType": "uint256",
                    "name": "validUntil",
                    "type": "uint256"
                }
            ],
            "name": "LogRequestLoan",
            "type": "event"
        },
        {
            "anonymous": false,
            "inputs": [
                {
                    "indexed": true,
                    "internalType": "uint256",
                    "name": "loanID",
                    "type": "uint256"
                }
            ],
            "name": "LogSlashDebtor",
            "type": "event"
        },
        {
            "anonymous": false,
            "inputs": [
                {
                    "indexed": true,
                    "internalType": "address",
                    "name": "previousOwner",
                    "type": "address"
                },
                {
                    "indexed": true,
                    "internalType": "address",
                    "name": "newOwner",
                    "type": "address"
                }
            ],
            "name": "OwnershipTransferred",
            "type": "event"
        },
        {
            "inputs": [],
            "name": "canUsePlattform",
            "outputs": [
                {
                    "internalType": "bool",
                    "name": "",
                    "type": "bool"
                }
            ],
            "stateMutability": "view",
            "type": "function"
        },
        {
            "inputs": [
                {
                    "internalType": "uint256",
                    "name": "loanID",
                    "type": "uint256"
                }
            ],
            "name": "drawLoan",
            "outputs": [],
            "stateMutability": "nonpayable",
            "type": "function"
        },
        {
            "inputs": [
                {
                    "internalType": "uint256",
                    "name": "_loanId",
                    "type": "uint256"
                }
            ],
            "name": "getCredit",
            "outputs": [
                {
                    "components": [
                        {
                            "internalType": "address",
                            "name": "requester",
                            "type": "address"
                        },
                        {
                            "internalType": "address",
                            "name": "lender",
                            "type": "address"
                        },
                        {
                            "internalType": "uint256",
                            "name": "principal",
                            "type": "uint256"
                        },
                        {
                            "internalType": "uint256",
                            "name": "repayment",
                            "type": "uint256"
                        },
                        {
                            "internalType": "uint48",
                            "name": "duration",
                            "type": "uint48"
                        },
                        {
                            "internalType": "uint48",
                            "name": "validUntil",
                            "type": "uint48"
                        },
                        {
                            "internalType": "bool",
                            "name": "isFilled",
                            "type": "bool"
                        },
                        {
                            "internalType": "bool",
                            "name": "isWithdrawn",
                            "type": "bool"
                        },
                        {
                            "internalType": "bool",
                            "name": "isPayedBack",
                            "type": "bool"
                        },
                        {
                            "internalType": "bool",
                            "name": "isClosed",
                            "type": "bool"
                        }
                    ],
                    "internalType": "struct FloanTypes.credit",
                    "name": "",
                    "type": "tuple"
                }
            ],
            "stateMutability": "view",
            "type": "function"
        },
        {
            "inputs": [],
            "name": "getTokenAddress",
            "outputs": [
                {
                    "internalType": "address",
                    "name": "",
                    "type": "address"
                }
            ],
            "stateMutability": "view",
            "type": "function"
        },
        {
            "inputs": [],
            "name": "getloanNum",
            "outputs": [
                {
                    "internalType": "uint256",
                    "name": "",
                    "type": "uint256"
                }
            ],
            "stateMutability": "view",
            "type": "function"
        },
        {
            "inputs": [],
            "name": "owner",
            "outputs": [
                {
                    "internalType": "address",
                    "name": "",
                    "type": "address"
                }
            ],
            "stateMutability": "view",
            "type": "function"
        },
        {
            "inputs": [
                {
                    "internalType": "uint256",
                    "name": "loanID",
                    "type": "uint256"
                }
            ],
            "name": "paybackLoan",
            "outputs": [],
            "stateMutability": "nonpayable",
            "type": "function"
        },
        {
            "inputs": [
                {
                    "internalType": "uint256",
                    "name": "loanID",
                    "type": "uint256"
                }
            ],
            "name": "provideLoan",
            "outputs": [],
            "stateMutability": "nonpayable",
            "type": "function"
        },
        {
            "inputs": [],
            "name": "renounceOwnership",
            "outputs": [],
            "stateMutability": "nonpayable",
            "type": "function"
        },
        {
            "inputs": [
                {
                    "internalType": "uint256",
                    "name": "_principal",
                    "type": "uint256"
                },
                {
                    "internalType": "uint256",
                    "name": "_repayment",
                    "type": "uint256"
                },
                {
                    "internalType": "uint256",
                    "name": "_duration",
                    "type": "uint256"
                },
                {
                    "internalType": "uint256",
                    "name": "_validUntil",
                    "type": "uint256"
                }
            ],
            "name": "requestLoan",
            "outputs": [],
            "stateMutability": "nonpayable",
            "type": "function"
        },
        {
            "inputs": [
                {
                    "internalType": "address",
                    "name": "_newTokenAddress",
                    "type": "address"
                }
            ],
            "name": "setNewToken",
            "outputs": [],
            "stateMutability": "nonpayable",
            "type": "function"
        },
        {
            "inputs": [
                {
                    "internalType": "uint256",
                    "name": "loanID",
                    "type": "uint256"
                }
            ],
            "name": "slashDebtor",
            "outputs": [],
            "stateMutability": "nonpayable",
            "type": "function"
        },
        {
            "inputs": [
                {
                    "internalType": "uint256",
                    "name": "loanID",
                    "type": "uint256"
                }
            ],
            "name": "takePayback",
            "outputs": [],
            "stateMutability": "nonpayable",
            "type": "function"
        },
        {
            "inputs": [],
            "name": "token",
            "outputs": [
                {
                    "internalType": "contract IERC20",
                    "name": "",
                    "type": "address"
                }
            ],
            "stateMutability": "view",
            "type": "function"
        },
        {
            "inputs": [
                {
                    "internalType": "address",
                    "name": "newOwner",
                    "type": "address"
                }
            ],
            "name": "transferOwnership",
            "outputs": [],
            "stateMutability": "nonpayable",
            "type": "function"
        }
    ],
    "bytecode": "0x608060405234801561001057600080fd5b5060405161139638038061139683398101604081905261002f916100ad565b6100383361005d565b600180546001600160a01b0319166001600160a01b03929092169190911790556100db565b600080546001600160a01b038381166001600160a01b0319831681178455604051919092169283917f8be0079c531659141344cd1fd0a4f28419497f9722a3daafe3b4186f6b6457e09190a35050565b6000602082840312156100be578081fd5b81516001600160a01b03811681146100d4578182fd5b9392505050565b6112ac806100ea6000396000f3fe608060405234801561001057600080fd5b50600436106100f55760003560e01c80638da5cb5b11610097578063f29852ae11610066578063f29852ae146102e9578063f2fde38b146102fc578063fc0c546a1461030f578063fce45f581461032257600080fd5b80638da5cb5b14610192578063d16ef22a146101a3578063d1da1624146101b6578063da304e4d146101c957600080fd5b806341c379c9116100d357806341c379c9146101515780635ed411e514610164578063715018a614610177578063753c7ff91461017f57600080fd5b806310fe9ae8146100fa5780631800dd70146101245780633ef995f814610139575b600080fd5b6001546001600160a01b03165b6040516001600160a01b0390911681526020015b60405180910390f35b61013761013236600461109b565b610333565b005b610141610457565b604051901515815260200161011b565b61013761015f36600461109b565b6104e1565b610137610172366004611054565b610693565b6101376106df565b61013761018d3660046110b3565b610715565b6000546001600160a01b0316610107565b6101376101b136600461109b565b6109aa565b6101376101c436600461109b565b610a25565b6102dc6101d736600461109b565b6040805161014081018252600080825260208201819052918101829052606081018290526080810182905260a0810182905260c0810182905260e0810182905261010081018290526101208101919091525060009081526002602081815260409283902083516101408101855281546001600160a01b039081168252600183015416928101929092529182015492810192909252600381015460608301526004015465ffffffffffff8082166080840152600160301b82041660a083015260ff600160601b82048116151560c0840152600160681b82048116151560e0840152600160701b820481161515610100840152600160781b90910416151561012082015290565b60405161011b9190611168565b6101376102f736600461109b565b610b0d565b61013761030a366004611054565b610c13565b600154610107906001600160a01b031681565b60035460405190815260200161011b565b600081815260026020526040902060040154600160701b900460ff16156103915760405162461bcd60e51b815260206004820152600d60248201526c4973207061796564206261636b60981b60448201526064015b60405180910390fd5b60008181526002602052604090206004015443600160301b90910465ffffffffffff1611156103f75760405162461bcd60e51b81526020600482015260126024820152712832b934b7b21034b9903737ba1037bb32b960711b6044820152606401610388565b61042960405180604001604052806011815260200170596f752061726520612062616420626f7960781b815250610cae565b60405181907f0e4a8618769b7d1382550dcb6900026bc57b02ec46b01d94e4df6f78ad4d423290600090a250565b60405163c3c5a54760e01b81523360048201526000907373bcce92806bce146102c44c4d9c3b9b9d7457949063c3c5a5479060240160206040518083038186803b1580156104a457600080fd5b505afa1580156104b8573d6000803e3d6000fd5b505050506040513d601f19601f820116820180604052508101906104dc919061107b565b905090565b60008181526002602081815260409283902083516101408101855281546001600160a01b039081168252600183015416928101929092529182015492810192909252600381015460608301526004015465ffffffffffff8082166080840152600160301b82041660a083015260ff600160601b82048116151560c08401819052600160681b83048216151560e0850152600160701b830482161515610100850152600160781b9092041615156101208301526105d45760405162461bcd60e51b815260206004820152601260248201527114995c5d595cdd081b9bdd08199a5b1b195960721b6044820152606401610388565b8060e00151156106265760405162461bcd60e51b815260206004820152601860248201527f4d6f6e657920686173206265656e2077697468647261776e00000000000000006044820152606401610388565b6001546040820151610643916001600160a01b0316903390610cf1565b600082815260026020526040808220600401805460ff60681b1916600160681b17905551839133917f3519abf971fce92bdd46abe4a7c137e5d0628cfe49441740889914cdc5fd49659190a35050565b6000546001600160a01b031633146106bd5760405162461bcd60e51b815260040161038890611133565b600180546001600160a01b0319166001600160a01b0392909216919091179055565b6000546001600160a01b031633146107095760405162461bcd60e51b815260040161038890611133565b6107136000610d59565b565b438110156107595760405162461bcd60e51b8152602060048201526011602482015270109858dac81a5b881d1a5b594818d85b1b607a1b6044820152606401610388565b604051806101400160405280336001600160a01b0316815260200160006001600160a01b031681526020018581526020018481526020018365ffffffffffff1681526020018265ffffffffffff1681526020016000151581526020016000151581526020016000151581526020016000151581525060026000600354815260200190815260200160002060008201518160000160006101000a8154816001600160a01b0302191690836001600160a01b0316021790555060208201518160010160006101000a8154816001600160a01b0302191690836001600160a01b03160217905550604082015181600201556060820151816003015560808201518160040160006101000a81548165ffffffffffff021916908365ffffffffffff16021790555060a08201518160040160066101000a81548165ffffffffffff021916908365ffffffffffff16021790555060c082015181600401600c6101000a81548160ff02191690831515021790555060e082015181600401600d6101000a81548160ff02191690831515021790555061010082015181600401600e6101000a81548160ff02191690831515021790555061012082015181600401600f6101000a81548160ff021916908315150217905550905050600354336001600160a01b03167f82980db29d0f482463ff18bdc101a6bb0e903fcded908e729e64da9f2cf44bba86868686604051610984949392919093845260208401929092526040830152606082015260800190565b60405180910390a360016003600082825461099f9190611226565b909155505050505050565b6001546000828152600260205260409020600301546109d6916001600160a01b03169033903090610da9565b600081815260026020526040808220600401805460ff60701b1916600160701b17905551829133917f5de9f94bf7e159942b45d6195f36dbeb317ed1217d185bf0f6d272d44b91b6689190a350565b60008181526002602081905260409091200154610a7c5760405162461bcd60e51b815260206004820152601560248201527404d757374206265206c6172676572207468616e203605c1b6044820152606401610388565b60015460008281526002602081905260409091200154610aa9916001600160a01b03169033903090610da9565b60008181526002602052604080822060048101805460ff60601b1916600160601b17905560010180546001600160a01b03191633908117909155905183927f45abb162b062dc19ae88e0196b029b5205cd181d058a62051eac83b7ac4c83cb91a350565b6000818152600260205260409020600101546001600160a01b03163314610b6d5760405162461bcd60e51b81526020600482015260146024820152732737ba1037b934b3b4b730b6103632b73232b91760611b6044820152606401610388565b600081815260026020526040902060040154600160701b900460ff16610bc55760405162461bcd60e51b815260206004820152600d60248201526c4e6f742070616964206261636b60981b6044820152606401610388565b600154600082815260026020526040902060030154610bef916001600160a01b0316903390610cf1565b6000908152600260205260409020600401805460ff60781b1916600160781b179055565b6000546001600160a01b03163314610c3d5760405162461bcd60e51b815260040161038890611133565b6001600160a01b038116610ca25760405162461bcd60e51b815260206004820152602660248201527f4f776e61626c653a206e6577206f776e657220697320746865207a65726f206160448201526564647265737360d01b6064820152608401610388565b610cab81610d59565b50565b610cab81604051602401610cc29190611100565b60408051601f198184030181529190526020810180516001600160e01b031663104c13eb60e21b179052610de7565b6040516001600160a01b038316602482015260448101829052610d5490849063a9059cbb60e01b906064015b60408051601f198184030181529190526020810180516001600160e01b03166001600160e01b031990931692909217909152610e08565b505050565b600080546001600160a01b038381166001600160a01b0319831681178455604051919092169283917f8be0079c531659141344cd1fd0a4f28419497f9722a3daafe3b4186f6b6457e09190a35050565b6040516001600160a01b0380851660248301528316604482015260648101829052610de19085906323b872dd60e01b90608401610d1d565b50505050565b80516a636f6e736f6c652e6c6f67602083016000808483855afa5050505050565b6000610e5d826040518060400160405280602081526020017f5361666545524332303a206c6f772d6c6576656c2063616c6c206661696c6564815250856001600160a01b0316610eda9092919063ffffffff16565b805190915015610d545780806020019051810190610e7b919061107b565b610d545760405162461bcd60e51b815260206004820152602a60248201527f5361666545524332303a204552433230206f7065726174696f6e20646964206e6044820152691bdd081cdd58d8d9595960b21b6064820152608401610388565b6060610ee98484600085610ef3565b90505b9392505050565b606082471015610f545760405162461bcd60e51b815260206004820152602660248201527f416464726573733a20696e73756666696369656e742062616c616e636520666f6044820152651c8818d85b1b60d21b6064820152608401610388565b843b610fa25760405162461bcd60e51b815260206004820152601d60248201527f416464726573733a2063616c6c20746f206e6f6e2d636f6e74726163740000006044820152606401610388565b600080866001600160a01b03168587604051610fbe91906110e4565b60006040518083038185875af1925050503d8060008114610ffb576040519150601f19603f3d011682016040523d82523d6000602084013e611000565b606091505b509150915061101082828661101b565b979650505050505050565b6060831561102a575081610eec565b82511561103a5782518084602001fd5b8160405162461bcd60e51b81526004016103889190611100565b600060208284031215611065578081fd5b81356001600160a01b0381168114610eec578182fd5b60006020828403121561108c578081fd5b81518015158114610eec578182fd5b6000602082840312156110ac578081fd5b5035919050565b600080600080608085870312156110c8578283fd5b5050823594602084013594506040840135936060013592509050565b600082516110f681846020870161124a565b9190910192915050565b602081526000825180602084015261111f81604085016020870161124a565b601f01601f19169190910160400192915050565b6020808252818101527f4f776e61626c653a2063616c6c6572206973206e6f7420746865206f776e6572604082015260600190565b81516001600160a01b031681526101408101602083015161119460208401826001600160a01b03169052565b50604083015160408301526060830151606083015260808301516111c2608084018265ffffffffffff169052565b5060a08301516111dc60a084018265ffffffffffff169052565b5060c08301516111f060c084018215159052565b5060e083015161120460e084018215159052565b5061010083810151151590830152610120928301511515929091019190915290565b6000821982111561124557634e487b7160e01b81526011600452602481fd5b500190565b60005b8381101561126557818101518382015260200161124d565b83811115610de1575050600091015256fea26469706673582212203e2036a72353952ed20067beb841cdf19bba9487d7ae78c18e6cb11b28acb56664736f6c63430008040033",
    "linkReferences": {},
    "deployedLinkReferences": {}
}